:020000040000fa
:080000000002040000000000f2
:020000040000fa
:100008002c0500002c0500002c0500002c05000024
:100018002c0500002c0500002c0500002c05000014
:100028002c0500002c0500002c0500002c05000004
:100038002c0500002c0500002c0500002c050000f4
:100048002c0500002c0500002c0500002c050000e4
:100058002c0500009a0200002c0500002c05000069
:100068006a1100002c0500002c0500002c0500007a
:100078002c0500002c0500002c0500002c050000b4
:100088002c0500002c0500002c0500002c050000a4
:100098002c0500002c0500002c0500002c05000094
:1000a8002c0500002c0500002c0500002c05000084
:1000b8002c0500002c0500002c0500002c05000074
:1000c8002c0500002c0500002c0500002c05000064
:1000d8002c0500002c0500002c0500002c05000054
:1000e8002c0500002c0500002c0500002c05000044
:1000f8002c0500002c0500002c0500002c05000034
:100108002c0500002c0500002c0500002c05000023
:100118002c0500002c0500002c0500002c05000013
:100128002c0500002c0500002c0500002c05000003
:100138002c0500002c0500002c0500002c050000f3
:100148002c0500002c0500002c0500002c050000e3
:100158002c0500002c0500002c0500002c050000d3
:100168002c0500002c0500002c0500002c050000c3
:100178002c0500002c0500002c0500002c050000b3
:100188002c0500002c0500002c0500002c050000a3
:100198002c0500002c0500002c0500002c05000093
:1001a8002c0500002c0500002c0500002c05000083
:1001b8002c0500002c0500002c0500002c05000073
:1001c8002c0500002c0500002c0500002c05000063
:1001d8002c0500002c0500002c0500002c05000053
:1001e8002c0500002c0500002c0500002c05000043
:0801f8002c0500002c0500009d
:020000040000fa
:100208002c0500002c0500002c0500002c05000022
:100218002c0500002c0500002c0500002c05000012
:100228002c0500002c0500002c0500002c05000002
:100238002c0500002c0500002c0500002c050000f2
:100248002c0500002c0500002c0500002c050000e2
:100258002c0500009a0200002c0500002c05000067
:100268006a1100002c0500002c0500002c05000078
:100278002c0500002c0500002c0500002c050000b2
:100288002c0500002c0500002c0500002c050000a2
:100298002c0500002c0500002c0500002c05000092
:1002a8002c0500002c0500002c0500002c05000082
:1002b8002c0500002c0500002c0500002c05000072
:1002c8002c0500002c0500002c0500002c05000062
:1002d8002c0500002c0500002c0500002c05000052
:1002e8002c0500002c0500002c0500002c05000042
:1002f8002c0500002c0500002c0500002c05000032
:100308002c0500002c0500002c0500002c05000021
:100318002c0500002c0500002c0500002c05000011
:100328002c0500002c0500002c0500002c05000001
:100338002c0500002c0500002c0500002c050000f1
:100348002c0500002c0500002c0500002c050000e1
:100358002c0500002c0500002c0500002c050000d1
:100368002c0500002c0500002c0500002c050000c1
:100378002c0500002c0500002c0500002c050000b1
:100388002c0500002c0500002c0500002c050000a1
:100398002c0500002c0500002c0500002c05000091
:1003a8002c0500002c0500002c0500002c05000081
:1003b8002c0500002c0500002c0500002c05000071
:1003c8002c0500002c0500002c0500002c05000061
:1003d8002c0500002c0500002c0500002c05000051
:1003e8002c0500002c0500002c0500002c05000041
:0803f8002c0500002c0500009b
:020000040000fa
:100400000f9d20000ebf20000e018800000000009c
:10041000000020000000e000020032000001200087
:10042000200288000c00070020612100010020004c
:1004300011000700000020000000e0000200320070
:100440000000020000000000121502000000000081
:100450000040da000000fe004440a900a001200096
:100460000000e0000300320000002000a00188002e
:100470004440a80000000600910188008000780038
:100480000000eb0015003700e280400032a0b4000d
:100490009101ba00e280400032a0b4009102ba009b
:1004a000e280400032a0b4000002eb00472bde00e7
:1004b000f507b200602ce10004003a000059eb009f
:1004c0008301e900fdff3e00040037006128e100e0
:1004d000010032000082eb00040007001101ba00a5
:1004e0000200e000e8ff3a00000006003159ba00bf
:1004f0008301e9000c0032002159ba008301e900b0
:10050000080032000400e00003003a00e2804000ee
:1005100032a0b400f5ff370011d9ba008301e90019
:10052000faff3a008100e800e180400032a0b40008
:10053000000006003600f800809fbe00829fbe00cb
:10054000849fbe00869fbe00881f78003400f8009c
:1005500000002000a00188000000fa00641680005e
:100560000420a0005416880000000000240f800022
:10057000544c8800244e80000402e800244e880079
:10058000254e800044062000848f520014003a005b
:10059000240f8000544c8800c8080700e1080700b9
:1005a000944c800081bb2000040078002a060700dc
:1005b00000047800744c8000017d20000400780065
:1005c000250607000002780004025400344e88001b
:1005d0000002eb00444e88000002eb00244e88002d
:1005e00004188000144e880014188000e44d880020
:1005f00024188000f44d880034188000044e8800d0
:10060000e44d8000cfa2de000400be00850007009c
:1006100000027800544a8800f44d8000cfa2de002a
:100620000400be007f00070000027800644a8800d2
:10063000240f8000f4024200047d20001100090014
:100640008482d800010278000400780021080700a5
:1006500000027800244a88006f050700354e8000ac
:10066000c44a800004825200e44b8800150a070047
:10067000044c8000e44a88000002eb00d44a880061
:100680002d0407008304070085a0a900ca42a90021
:10069000000000000080fa003400f9004f047800e8
:1006a0004f03be004f02be004f01be004f00be0010
:1006b0003600f900004006000000fa0084fd20002a
:1006c000641988002c03a9002c23a9002c43a9003d
:1006d0002c63a8002c83a8002ca3a900c002a800aa
:1006e000c022a800c802a800c862a80021e3a9008f
:1006f00021a3a8002143a900041980000480a100bf
:100700000490a10004198800041980000450a0007e
:100710000460a0000470a100041988002063a800f0
:100720002043a800341980000490a10004a0a10077
:10073000341988002703a900341980000410a1008f
:100740000420a100341988002603a90029e3a90088
:1007500045198000f40f2e008482620004502000ae
:10076000050272004419880028e3a9004519800099
:1007700004fe2f00048262005400b3004419880074
:100780000002eb008419880025e3a90025198000e8
:10079000f40f2e00048262002419880024c0b300e4
:1007a0000443780045322000864a780014198000fe
:1007b00004d0a10004e0a10004f0a10014198800f5
:1007c0002343a900141980000480a0000490a00015
:1007d0001419880022e3a900141980000420a10044
:1007e0000430a1000440a1000450a10014198800a5
:1007f0002223a9002203a900540580000440a1007f
:100800000450a0000460a1005405880085a0a90040
:1008100095a0a80021e3a8002023a8000080fa00ea
:10082000000006000800fa00200798003107980031
:100830002e039000be039000e41f2000050020005e
:10084000840f5300858f5b00120034002e0390004c
:10085000be03900024e02f00f5ff2f0006024200a7
:1008600087824a0024079800350798002e029000de
:100870006e22b9000402780014079800a11020002d
:100880001e0090007405070000027800040f780035
:1008900013003700e61f2000070020002e02900002
:1008a000be0290000402530085825b00240798007a
:1008b000350798002e0290006e22b90004027800dd
:1008c000140798001e0290000402ea00a110200004
:1008d000040078006005070000027800040f78002b
:1008e0001e027800040078000080fa000000060074
:1008f0000000fa00c1e1a900c1a1a900040e800016
:100900000440a0000450a0000460a0000470a000f7
:10091000040e8800040e80000420a1000430a10011
:10092000040e8800040e80000400a1000410a00042
:10093000040e8800150e8000040028000482620066
:10094000140e8800250e80000400280084826200b6
:10095000f43f200005027200240e8800c7e1a900c0
:10096000350e80000400280084826200643b200071
:1009700005027200340e8800c901a900c921a9002e
:10098000c941a900c881a800c8a1a800c8c1a80081
:10099000c801a900c821a900c841a900540e8000bf
:1009a0000480a1000490a10004a0a10004b0a10053
:1009b000540e8800ca41a900ca01a900ca21a90091
:1009c000640e80000460a1000470a100640e880021
:1009d000640e800004e0a10004f0a100640e880011
:1009e000650e800004fc2f00048262000420a00039
:1009f000640e8800650e8000f40f2c008482620073
:100a00000440200005027200640e8800ce25a90073
:100a1000d001a900d021a900d041a900d501a8008a
:100a2000d541a800d581a800d521a800d561a8008e
:100a3000d5a1a8000002eb00b40e88000002eb0074
:100a4000c40e88000002eb00d40e8800c1e1a800ab
:100a50000080fa00000006000040da000000fe00fe
:100a6000889fbe008a9fbe008c1f7800ac000700e4
:100a7000b300330003866c006450e1002e003200a6
:100a80006420e100330032006150e1002f003200a9
:100a90006120e1003100320085855500eb07b00090
:100aa0000900200008042000050037000804440065
:100ab00089844c000a0031000603430087834b0001
:100ac0000001530081815b00f8ff33000203be0088
:100ad0000800a0000804440089844c00f6ff390097
:100ae000c639dd00830173000100320013002000cd
:100af0008904d1000884d3000998a30005003200be
:100b00000800a7000300a0008904d1000884d300d6
:100b10008b05e8008904d1000884d3000001eb00b4
:100b20000281d2004300070001f0a1000cf0a700f1
:100b300001f0a0008b0037006420e1008d0032003e
:100b40000801be000200be00f7ff37006120e1008f
:100b5000880032006000b800f3ff3700000020007a
:100b600001f82700f0ff3700839f68000100e000d4
:100b700002003d0060001000e08018000300e0006b
:100b800002003d0060011100e0811900b000070083
:100b90004f00e00002003b0060001000e080180001
:100ba000000006000001be00480007000470a70016
:100bb00003f0a1006509b100160032000d003500f8
:100bc0006828e10006003500f0ff2f00f1ff270044
:100bd0000300e00013003b000100280000000500b6
:100be00000004000818048008502e900fcff3a00d7
:100bf00008003700f88f420002003c008000eb0044
:100c0000000005008100d1000080d3008502e800cb
:100c1000fcff3a000300e00002003b00600010000f
:100c2000e0801800000006004f89de008201780095
:100c30009700370081002000618055000b003d00c7
:100c40000b00200061fe2f000100e1001d003400b8
:100c500082817100610164008904d1000884d3009d
:100c60000000e800faff3a00710020006100640013
:100c700003007000020060000900320061044400bb
:100c8000e0844c000988a500050032008b05e800cf
:100c90006808e10002003a008904d1000884d3000a
:100ca000f20f20000258e10005003d00c75ddd00a5
:100cb000f907b2008980750008007800000006007e
:100cc0000bf827008b00780000000500c70ade0043
:100cd000f107b200f50fb20008003200e1cf420088
:100ce000020032000170a00024000500810f700096
:100cf000010032000408050044000500810f700067
:100d000002003a00140005008502e90000004000de
:100d100081c04800fcff3b000170a00024000500da
:100d20000004be00e9ff07000003be000405be008a
:100d30000200be00e5ff0700844f750000000600ba
:100d40000200be006450e100050036006420e100ae
:100d5000020036000968a30001003a000800be0046
:100d60000160a0004f0678004f05be004f04be0092
:100d700000000600f0ff2f00f1ff2700f9ff370009
:100d8000889fbe008a9fbe008c1f7800e4ff07008a
:100d9000ebff330003866c006450e1002400320056
:100da0006420e100270032006150e100220032009f
:100db0006120e100210032008b854200eb07b10089
:100dc0000134b800003ab8000804420089844a009f
:100dd000013ab8000030b8008880400009014a009c
:100de00004003300000040008180480002014900f7
:100df0008b05e900c909dd008301700001003200a4
:100e000013002000c814de004814dd004709de008e
:100e10001200b200c808de000884700085ff0700d9
:100e200001f0a1000cf0a70001f0a000cdff3700f9
:100e30006120e100cfff32000801be000200be00c9
:100e4000f7ff37006150e100fcff3a00c9ff3700af
:100e50006022b800060220000000d0008180d2008d
:100e60000482d2008582d2000000a000020252005b
:100e700083825a00030031000202420083824a004a
:100e80000000a1000603e900f3ff3a00000006009d
:100e9000881f7800030478000300e00007003d008d
:100ea00060001000e080180060011900e081190066
:100eb00002003b0001f02d00030037000400070092
:100ec00008f0a70001f0a0004f0478000000060021
:100ed000889fbe008a9fbe000082700004027100dd
:100ee00004827100260032000004be000200be0031
:100ef0006011b8006b092000950220000182cf002c
:100f00000a0039000541b1000082cf000700390016
:100f10000541b1000982cf00040039000541b1004c
:100f20000882cf00010039000541b100054252009e
:100f3000120032000a003b008281710061016400ee
:100f40008100d1000080d3008984d3000884d300bd
:100f50008b05e8000442e800f7ff3a00070037007d
:100f60000804440089844c00000048008180480047
:100f70008b05e9000442e900f9ff3a002dff070064
:0c0f80004f05be004f04be00000006003c
:020000040000fa
:100f8c003f24000003000000e1b700000200000055
:100f9c0000000000010000003f24000003000000de
:100fac00e1b700000200000000000000010000009a
:040fbc00000400002d
:020000040000fa
:100fc0003000fa00401798005117980062179800f7
:100fd000731798004e129000de12900040aade00b7
:100fe000cfa2de0024079800350798006e1290000b
:100ff000fe12900040aade00cfa2de004407980057
:10100000550798004e139000de139000f4ff2f0058
:1010100005002000060078000703780084037800ac
:10102000050278000700600004026300050020004c
:10103000c022dd00040020000403be006102b800ed
:101040000403730085837300660798007707980090
:101050006e139000fe139000f4ff2f000500200097
:101060000600780007037800840378000502780002
:10107000070060000402630005002000c022dd00bc
:10108000040020000403be006102b80004037300e2
:1010900085837300060f9800170f9800be0290001a
:1010a0004e02900004aab90004037800de0290000a
:1010b0002e02900004aab900040278000403430041
:1010c000ae0290004e029000042ab80005034300cf
:1010d00086027800240f9800350f9800240f98009e
:1010e000350f98002e029000be0290000e0b90006b
:1010f00005b3b900060078001e0b900004b3b900d8
:101100000603780006004000840278000e0a900072
:10111000042bb80007004000800378004e029000c6
:10112000de0290006e0090000580b900000078009b
:10113000fe0090000489b9008200780001004000a0
:10114000840278006e029000042ab8000500400076
:10115000800278000602420087824a00440f98000d
:10116000550f9800fe0290000e0a900004aab900e4
:10117000040378009e0a90006e02900004aab90051
:101180000402780004034300ee0290000e0a90006f
:10119000042ab8000503430086027800640f980013
:1011a000750f9800640f9800750f98004e0a900014
:1011b000de0a900040abde00cfb3de002e0a9000c6
:1011c000be0a9000041f430005974b004e0a900092
:1011d000de0a9000c022dd00040020000417980001
:1011e000151798006e0b9000fe0b90000e129000e9
:1011f0009e1290000602420087824a00241798003f
:10120000351798002e139000be1390006e0a9000c0
:10121000fe0a9000840f5300858f5b0004003100ac
:1012200014002000050020001e0f42005e974a00b7
:101230001e02be00c022dd00040020000403be0028
:101240002e129000be129000402ade000500200001
:1012500004027300858273000400be000080fa005f
:10126000000006002800fa000017980011179800e7
:1012700022179800331798000002eb00040f780043
:101280000002eb00140798006022b800040f9800d9
:10129000150f98006022b800240f9800350f9800b1
:1012a0006022b800440f9800550f9800743e8400e7
:1012b000853e840044079800550798006022b800d6
:1012c00064079800750798006022b800640f9800c2
:1012d000750f98000e1290009e129000e00f5200c1
:1012e000e08f5a0008003d000e1290009e12900000
:1012f00060021200e0821a00041798001517980087
:1013000014002000140798002e129000be129000c6
:10131000e00f5200e08f5a0007003d00743e840049
:10132000853e840060021200e0821a0024079800c3
:101330003507980004003700743e8400853e840021
:1013400024079800350798002e119000be119000d8
:101350002e009000be00900019ff07000002be00a2
:1013600060021200e0821a00240f9800350f9800e6
:101370000e1190009e1190002e009000be00900073
:101380000fff07000002be00440f9800550f9800a1
:1013900004488000154880000401be002e00900023
:1013a000be00900006ff07000002be006407980020
:1013b000750798002e0a9000be0a90000417980046
:1013c000151798004e0a9000de0a90002417980026
:1013d0003517980014002000040f780051003700e2
:1013e0004e019000de0190002e109000be10900083
:1013f000f3fe07000002be000401be002e009000b4
:10140000be009000eefe07000002be000e1390002a
:101410009e1390000402530085825b00240f980005
:10142000350f98004e019000de0190000e109000e4
:101430009e109000e2fe07000002be000401be0004
:101440002e009000be009000ddfe07000003be00ed
:101450002e129000be1290000602420087824a00bf
:10146000440f9800550f98001e027800c222dd003c
:1014700004902000048242001402be000401be0059
:101480002e009000be009000cdfe07000002be00be
:101490006e039000fe0390000602420087824a001d
:1014a00064079800750798002e0a9000be0a900005
:1014b00004179800151798004e0a9000de0a900055
:1014c00024179800351798004e029000de02900015
:1014d0008582d1000482d300440798005507980004
:1014e0002e129000be129000e00f5200e08f5a00c2
:1014f00007003d00743e8400853e840060021200b7
:10150000e0821a002407980035079800040037008d
:10151000743e8400853e84002407980035079800b7
:101520001e0fe8001e027800ef0f5200acff3400df
:101530001e029000e00f520014003a00743e840036
:10154000853e8400460b200006abb90006037800f8
:101550006020b9008003780007034300840278000c
:10156000440b2000042ab8000503430086027800db
:101570006e039000fe0390000602520087825a001c
:10158000640798007507980001003700000000000c
:101590006e029000fe029000e00f5200e08f5a00b1
:1015a00013003d00743e8400853e840086162000b2
:1015b00006abb900060378006020b900800378000c
:1015c000070343008402780084162000042ab80030
:1015d00005034300860278006e039000fe0390002e
:1015e0000602420087824a00640798007507980047
:1015f0006e029000fe0290000400be000080fa001f
:10160000000006001000fa006007980071079800bb
:101610006e029000cfa2de00048fbe001e03be004b
:10162000453add00cb32de00850272004532dd0036
:10163000048fbe007e029000cfa2de002407980037
:10164000350798002e039000be039000453add0058
:10165000cb32de00850272004532dd00240798009f
:10166000350798002e019000be0190001e00be00bc
:10167000fcfe07000002be0040aade00cfa2de0092
:1016800044079800550798004e0290000400780027
:101690000080fa00000006001000fa0060079800c1
:1016a000710798006e029000cfa2de00048fbe008a
:1016b0001e03be00453add00cb32de00850272001b
:1016c0004532dd00048fbe007e029000cfa2de0016
:1016d00024079800350798002e039000be03900061
:1016e000453add00cb32de00850272004532dd0076
:1016f00024079800350798002e019000be01900045
:101700001e00be00d7fe07000002be0082162000a9
:10171000030020000400be0013fd07000002be000d
:1017200044079800550798004e0290000400780086
:101730000080fa00000006000000fa00881f780010
:10174000354a8000d44a8000850078000400780083
:10175000c101070000047800454a8000e44a800087
:101760008500780004007800bb01070000027800c3
:1017700004025400944a8800454a8000d44a8000fc
:101780008500780004007800b301070000047800a9
:10179000354a8000e44a8000850078000400780023
:1017a000ad0107000002780004024400a44a88004a
:1017b000944a8000f44a8800a44a8000840078009b
:1017c00060372000a401070000027800964a8000dc
:1017d00025002000110009000503d80080027800d0
:1017e00005025200044b8800954a80002400200026
:1017f000110009008402d800000278000404ea0005
:10180000a44a80008400780060372000920107001d
:101810000002780004025400144b8800a44a80009f
:10182000244b8800944a80008400780060372000b0
:101830008901070000027800a64a800025002000e8
:10184000110009000503d80080027800050252004b
:10185000344b8800a54a80002400200011000900b4
:101860008402d800000278000404ea00944a800050
:1018700084007800603720007701070000027800bc
:1018800004025400444b88004f0478000080fa00a2
:10189000000006000600fa00244b8000e00f520012
:1018a00032003500344b8000e00f52000e0035004e
:1018b000344b8000544b8800244b8000644b8800dc
:1018c0006b000700844b8000040f7800944b80006d
:1018d00014079800744b8000240798000002eb0066
:1018e000d44b880054003700444b8000e00f520076
:1018f0000e003500244b8000544b8800444b800080
:10190000644b88005a000700744b8000040f780075
:10191000844b800014079800944b800024079800a3
:1019200084072000d44b880043003700344b8000ec
:101930000402ea00544b8800444b80000402ea0091
:10194000644b88004a000700944b8000040f780025
:10195000844b800014079800744b80002407980083
:10196000c4032000d44b880033003700344b800080
:10197000e00f520021003500444b8000e00f520080
:101980000e003500444b8000544b8800344b8000df
:10199000644b880036000700944b8000040f7800e9
:1019a000744b800014079800844b80002407980033
:1019b000040f2000d44b88001f003700444b8000e8
:1019c0000402ea00544b8800244b80000402ea0021
:1019d000644b880026000700844b8000040f7800c9
:1019e000744b800014079800944b800024079800e3
:1019f000c4122000d44b88000f003700244b800015
:101a00000402ea00544b8800344b80000402ea00d0
:101a1000644b880016000700744b8000040f7800a8
:101a2000944b800014079800844b80002407980092
:101a3000440b2000d44b88001e027800a44b880081
:101a40001e029000b44b88002e029000c44b880008
:101a50001e027800b40e88001e029000c40e88009a
:101a60002e029000d40e88000080fa0000000600cc
:101a70001000fa00544b8000e105200004007800bb
:101a8000f500070000027800544b8800644b80008a
:101a9000e105200004007800ef0007000002780054
:101aa000644b8800544b8000cfa2de007673200088
:101ab00006abb900060378006020b9008003780007
:101ac000070343008402780074732000042ab800de
:101ad0000503430086027800048fbe00048fbe0019
:101ae000644b8000cfa2de007673200006abb90005
:101af000060378006020b9008003780007034300e4
:101b00008402780074732000042ab800050343009f
:101b1000860278002407980035079800240798006b
:101b2000350798001e02be00e00f5200e08f5a00f9
:101b300002003d00f43fb0000580b000462bdd0000
:101b40004a22de0004027300caaade00048fbe002f
:101b50002e029000be029000e00f5200e08f5a006b
:101b600002003d00f43fb0000580b000462bdd00d0
:101b70004a22de0004027300caaade00240798008d
:101b8000350798001e02be004407980055079800cc
:101b90002e029000be02900064079800750798001e
:101ba00076732000070020004e029000de029000b5
:101bb0000403530085835b006e029000fe029000d8
:101bc0000402530085825b004f2bde0007002000db
:101bd0000602420087824a008582d1000482d30037
:101be00004027800844b8800844b800084027800d3
:101bf0004e02900004824200944b8800944b800077
:101c0000840278006e02900004824200744b8800c7
:101c10000080fa00000006000000fa00881f78002b
:101c2000244a800004007800b00007000002780019
:101c300005022000110009000502d800000278000a
:101c4000344a8800244a800004007800fa00070023
:101c50000002780005022000110009000502d800ea
:101c600000027800444a8800544a8000744a880080
:101c7000544a8000e1242000040078007600070028
:101c800000047800644a8000c14920000400780004
:101c9000710007000002780004024400844a8800b2
:101ca000354a8000744a800085007800040078007e
:101cb0006900070000047800454a8000844a8000db
:101cc00085007800040078006300070000027800b7
:101cd00004024400b44a8800354a8000844a8000e7
:101ce00085007800040078005b000700000478009d
:101cf000454a8000744a800085007800040078001e
:101d0000550007000002780004025400c44a88000d
:101d10004f0478000080fa00000006000200fa007c
:101d2000000f7800f53e84001e02780004aab90076
:101d300004027800040078000080fa000000060029
:101d40000200fa00889fbe00000f78001e02780093
:101d5000cfa2de000400be00b3fb07000004be00fb
:101d6000f43e8400cfa2de000400be00aefb0700fc
:101d70000002be000401be000800be0038fb0700e0
:101d80000002be000400be004f04be000080fa0046
:101d9000000006000200fa00889fbe00000f7800d5
:101da0001e027800cfa2de000400be009efb0700ea
:101db0000004be00f43e8400cfa2de000400be009a
:101dc00099fb07000002be000401be000800be002f
:101dd00023fb07000002be000400be004f04be004b
:101de0000080fa00000006000200fa00000f7800f0
:101df0001e0278004aa2de00040078000080fa008b
:101e0000000006000800fa0020079800310798003b
:101e1000f43e8400cfa2de000400be0082fb070077
:101e20000002be002e019000be0190000400be0022
:101e3000d3fb07000002be00048fbe001e00be00e0
:101e400058fb07000002be0004027800040078007e
:101e50000080fa00000006000800fa002007980041
:101e6000310798002e029000cfa2de00048fbe0042
:101e70003e029000cfa2de001e03900004b3b90022
:101e8000060378009e03780005b8b9008003780047
:101e9000070343009e037800040278000722b8007d
:101ea0000503430086027800048fbe00048fbe0045
:101eb0001e02be00e00f5200e08f5a0002003d00fb
:101ec000f43fb0000580b000462bdd004a22de0062
:101ed00004027300caaade00048fbe001e0278004e
:101ee000040078000080fa00000006000c00fa00f0
:101ef000500798005e0290004922de00040f78002f
:101f0000040220009e024200f4072000048f6200b9
:101f10009e02e800f4072000048262001407980083
:101f20001e029000840242000480200004824200cd
:101f3000140278006123b9001e0278008402420076
:101f4000048020000482420014027800cfa2de0048
:101f50000400530085805b005e0290006123b8009e
:101f6000f41f200005002000060178000703780018
:101f70008403780005027800070161000402630011
:101f80006123b800c033dd00060020000602be0059
:101f90006113b8000602720087827200048bb900d8
:101fa0000603780000a9b900820378000703430004
:101fb0008003780004027800043ab8000503430067
:101fc00086027800240798003507980024079800b7
:101fd000350798002e029000be029000e00f5200dc
:101fe000e08f5a0002003d00f41fb0000580b000f1
:101ff000472bdd004922de0004027300c9aade007f
:1020000024079800350798002e0290004407980096
:102010001e027800840242000480200004824200f4
:10202000940278004e02900004824200040078007e
:102030000080fa00000006000c00fa00500798002b
:102040005e0290004922de00040f7800f4072000b1
:102050001e0f62009e02e800f40720000482620066
:10206000140798001e0290008402420004802000a1
:1020700004824200140278006123b9001e02780035
:10208000840242000480200004824200140278008e
:10209000cfa2de000400530085805b005e0290004a
:1020a0006123b800f41f200005002000060178001d
:1020b00007037800840378000502780007016100b7
:1020c000040263006123b800c033dd000600200075
:1020d0000602be006113b800060272008782720019
:1020e000048bb9000603780000a9b90082037800c8
:1020f000070343008003780004027800043ab80024
:1021000005034300860278002407980035079800ed
:1021100024079800350798002e029000be02900018
:10212000e00f5200e08f5a0002003d00f41fb000a3
:102130000580b000472bdd004922de000402730059
:10214000c9aade0024079800350798002e029000e7
:10215000440798001e027800840242000480200098
:1021600004824200940278004e02900004824200f1
:10217000040078000080fa00000006000400fa0065
:10218000100798001e029000e00f520009003d0069
:102190001e0290000402ea00140798001e0290003c
:1021a0004aa2de00140798001e029000040f780077
:1021b000050037001e0290004aa2de0014079800b6
:1021c0001e029000040f78001e02780004007800c0
:1021d0000080fa00000006000800fa0030079800ae
:1021e0003e029000e00f520003003d003e029000ce
:1021f0000402ea00340798003e0290006123b9000f
:10220000f43f2000050020000600780087037800d6
:10221000040378000502780006036000048263006e
:1022200005002000c022dd0004002000048fbe0055
:102230006132b8001e1f72001e9772003e029000ad
:10224000cfa2de00063d200006abb90006037800f1
:102250006020b900800378000703430084027800ff
:10226000043d2000042ab8000503430086027800dc
:10227000048fbe001e02be00462bdd004a22de0097
:1022800004027300ca2ade00048fbe001e0278001a
:10229000240798002e029000040078000080fa00c5
:1022a000000006000200fa00040028003410880034
:1022b00004052000541088000002eb00340488005c
:1022c0000042eb00044f78009600a8000080fa005e
:1022d00000000600849fbe00861f78000400fa00fc
:1022e0004410800064026200e00f52000c003a00cb
:1022f000451080000402200004826200e00f5200ba
:1023000007003a00041080001447980014c0b3007e
:1023100004437800759a2000864a7800c50037008b
:102320004410800064026200e00f52003e003a0058
:10233000451080000402200004826200e00f520079
:10234000390032000410800014479800749a20006d
:10235000144278000482fb00e20f520016003200a3
:10236000e30f52001c003200e10f5200b0003a00af
:102370009e429000849a2000054a7800859a2000a9
:102380009542780004c6b30084cf520005003600a1
:1023900024c0b30084427800769a2000054b780070
:1023a00004003700b4c0b30084427800769a20005d
:1023b000054b78001b0037001e429000969a2000c3
:1023c000044b780034c0b30004437800759a2000b1
:1023d000864a7800130037009e429000a49a20009d
:1023e000054a78000042eb0084427800769a20008b
:1023f000054b7800a49a2000144278008482fb00e8
:10240000949a2000144278000482fb004822dd00e8
:1024100004824200140798001e029000844c880039
:102420000000000083003700441080006402620056
:10243000e00f52007f0032004510800004022000af
:1024400004826200e00f52007a003a00041080001b
:1024500014479800859a20009542780004c6b3007e
:1024600084cf52006d003e00749a20001442780020
:10247000eb4f520069003a00849a20001442780021
:102480008482fb0074042000848f52004e003a00c6
:102490000042eb00044f780047003700559a2000b7
:1024a00095427800449a20001442780084cf52006c
:1024b0001d003200549a2000144278008482fb00f0
:1024c0004499200004824200144278000402fb0078
:1024d000141088000782a80000000000441080004b
:1024e00061026200e00f5200fcff3a00549a2000a3
:1024f000144278000442e80084427800569a200092
:10250000054b7800549a200014427800f04f520096
:1025100028003a000042eb0084427800569a2000de
:10252000054b780023003700649a2000144278009d
:10253000e04f520013003a00549a200014427800f1
:102540008482fb00449920000482420014427800f7
:102550000402fb00141088000782a800000000009d
:102560004410800061026200e00f5200fcff3a005c
:1025700014c0b30084427800669a2000054b7800ae
:102580000c003700f40f2000141088000782a80008
:10259000000000004410800061026200e00f520061
:1025a000fcff3a000042eb0084427800669a20006b
:1025b000054b78001e4fe8001e427800e74f52009e
:1025c000b6ff360015003700949a200014427800b8
:1025d0000482fb00141088000782a800000000009d
:1025e0004410800061026200e00f5200fcff3a00dc
:1025f000a49a2000144278000482fb001410880082
:102600000782a80000000000441080006102620000
:10261000e00f5200fcff3a00000000000042eb0017
:1026200084427800769a2000054b7800010037003c
:10263000000000008600a9000080fa004f03780027
:102640004f02be00004006000600fa001007980086
:10265000210798000002eb00040f780017003700f4
:10266000449a2000144278008483fb009e02780084
:102670001e03900085024300154378004599200011
:1026800085824300864a78000442e80004437800cb
:10269000459a2000864a7800449a20001442780027
:1026a000f04f520004003a000042eb00044378006f
:1026b000459a2000864a78001e0fe8002e029000fe
:1026c0009e027800848f5200e5ff35000080fa00fa
:1026d000000006000400fa00100798000002eb005a
:1026e000040f7800110037001e02780084024200b7
:1026f000c49a200004824200940278001e029000d6
:10270000848f520008003e009e0290001e02e800e6
:1027100004034200c49a200004024300140278001b
:10272000848f5200050039001e0fe8001e02780059
:10273000e50f5200ecff34000100370000000000fc
:102740009e0290001e02780004034200c49a2000fa
:102750000402430014027800048252001407980017
:102760009e029000540e200004aab90004027800d2
:10277000040078000080fa00000006000800fa005b
:1027800020079800310798000002eb00040f780042
:10279000110037001e02780084024200c49a200013
:1027a00004824200940278003e029000848f52001e
:1027b00008003e001e02e80084024200c49a200085
:1027c00004824200940278003e029000848f5200fe
:1027d00005003e001e0fe8001e027800e50f5200c3
:1027e000ecff340001003700000000001e027800fa
:1027f00084024200c49a20000482420094027800bd
:102800002e039000540e2000110009000483d8000c
:102810000002780004824200140798001e02900013
:10282000040078000080fa00000006000000fa00b2
:10283000040f80000480a1000490a10004a0a10066
:10284000040f8800e1e1a900e1a1a900e0e1a900ed
:10285000e0c1a900e0a1a900040f80000430a1009c
:102860000440a000040f8800e041a800e021a90076
:10287000e001a900e301a800e2e1a900140f800033
:102880000440a0000450a1000460a000140f8800c0
:102890000002eb00240f8800040f80000480a100d8
:1028a0000490a00004a0a000040f8800f47c200085
:1028b000340f88000080fa00000006000200fa00d1
:1028c000554c8000644c8000048f52001e0278003a
:1028d000e00f520007003500643e20009e027800a1
:1028e000848f52000900340014832f001e0f420011
:1028f00006003700a4c12f009e027800848f52008a
:1029000002003d00f47c20001e0f42001e027800f1
:10291000744c8800544c8000644c88000080fa009d
:10292000000006000200fa00854c8000544c800034
:10293000048f52001e027800e00f5200070035009d
:10294000643e20009e027800848f5200090034000b
:1029500014832f001e0f420006003700a4c12f0071
:102960009e027800848f520002003d00f47c20001b
:102970001e0f42001e027800944c88000080fa006e
:10298000000006000000fa0064022000343a8800cb
:10299000243a80000460a1000470a100243a880059
:1029a000253a800004fe2f0004826200243a880049
:1029b0003600200084072000a5092000377420007d
:1029c000844b7800854b7800864b780016002000f9
:1029d000640420007505200027742000844b7800d3
:1029e000854b7800864b780000000000153a800087
:1029f000040027008482620004002300848f5200b8
:102a0000faff3a0000000000153a8000040220009e
:102a100004826200e00f5200fbff32000080fa00e7
:102a2000000006001e00fa000042eb00044f780090
:102a30000042eb00144798000042eb002447980046
:102a4000d0ff0700840c2000240798000002eb0050
:102a500034079800047d200044079800f4372000d4
:102a600064198800f4372000641988000002eb0024
:102a7000041688000002eb00441688000002eb00f8
:102a8000141688000002eb0054168800c822a80023
:102a9000c8e2a800c962a800c9a2a8006ae0a8000c
:102aa0000002eb00341888003418800024188800d5
:102ab0002418800014188800141880000418880056
:102ac000153a8000f4fb2f000483620064042000a8
:102ad0007505200027742000844b7800854b780012
:102ae000864b7800e534800004fe2f0004826200eb
:102af000b400b300e4348800e5348000f40f2e0005
:102b00008482620004d0200005027200e434880050
:102b1000f534800004fe2f00048262007400b300cc
:102b2000f4348800153a8000040420000503720084
:102b3000640420007505200027742000844b780071
:102b4000854b7800864b7800d6fd07000042eb00ed
:102b50001447980035ff070065f70700d6f6070011
:102b6000bc00070004c3b300244f980004c3b300a3
:102b7000344f980004c3b300444f980004c3b3001b
:102b8000544f9800d4c0b300644f9800a4c0b30061
:102b9000744f980004c3b3004457980004c3b300b3
:102ba0005457980004c3b3006457980004c3b3009b
:102bb00074579800d4c0b300045f9800a4c0b30059
:102bc000145f98000002eb00b40e88000002eb00d6
:102bd000c40e88000002eb00d40e880004c2b300cb
:102be0004457980004c2b3005457980004c2b3007d
:102bf0006457980004c2b3007457980004c2b3002d
:102c0000045f9800d4c0b300145f9800a4c0b30060
:102c1000245f98000088230011002000d0000700e6
:042c2000eeff37008c
:020000040000fa
:102c240000090000440000000200000000005a00f7
:102c3400000000002d00a700901a000047090e00b4
:102c44000001200007008b009303000038ca010034
:102c5400002ae50000009700720000004c390000d3
:102c640000a51c00000052000e000000290700000f
:102c7400009403000000ca0001000000e500000009
:102c84000072000000000000440900003800000049
:102c940000000000ca090000060000000000000057
:102ca400bc0900000e000000000000007c090000c8
:102cb40018000000000000000008000000010000ef
:102cc4000200000000004800068c0c00c812f90045
:102cd400181a1f0028251f002bfc3000ba36560096
:102ce4003cce41001d4740004c335100f555820055
:102cf4005ad75e00f262cf00666d6a00ca6de200c8
:102d040070b5730041768400787d7a00297c8a004e
:102d14007d9d7e00627fd8007ffd7f00d87f6200aa
:102d24007f9d7e008a7d29007c7d7a008478410025
:102d340076b57300e270ca006d6d6a00cf66f2006a
:102d440062d75e00825af50055335100404c1d0095
:102d540047ce4100563cba0036fc30001f2b2800f9
:102d6400251a1f00f918c800128c0c004806000030
:102d740000b8f90074f33800ed07e700e6e0d80086
:102d8400dae1d40004cf4600c9aac30032bee3008e
:102d9400b8c0b300cdae0b00aa7ea50029a10e00d9
:102da4009d31990093953600921e8f004b8cbf0085
:102db400897c87008385d7008376820063819e00a7
:102dc4008028800003802800809e80006381760034
:102dd40082d7830083857c0087bf89004b8c1e00cb
:102de4008f36920093953100990e9d0029a17e00a3
:102df400a50baa00cdaec000b3e3b80032beaa0052
:102e0400c346c90004cfe100d4d8da00e6e00700e5
:102e1400e738ed0074f3b800f9000000ac090000d5
:102e2400100000000200000000001d00013b020031
:102e34005803760004930500b106cf000700000094
:102e440094090000180000000000000000000000c9
:020000040000fa
:102e54000000fa000002eb00144c88000002eb00b2
:102e6400f44b88006066260061062400e4fb07003a
:102e740000027800244c8800a0ef2700a10524005c
:102e8400dffb070000027800344c880000002000bb
:102e940001102400dafb070000027800444c88008b
:102ea4000002eb00644c88000002eb00544c8800e4
:102eb4000002eb00744c88000080fa000000060059
:102ec4000000fa00881f7800184c8000e54b800051
:102ed400244c80008500780004007800ddfb0700a6
:102ee4000002780004044400f54b8000344c800058
:102ef4008500780004007800d6fb07000002780003
:102f040004025400044c8800054c8000444c8000aa
:102f1400848f520002003400444c8000044c88002a
:102f2400054c8000444c80000402ea00848f520067
:102f340003003d00444c80000402ea00044c880075
:102f4400e44b8000f44b8800044c8000144c88004f
:0c2f54004f0478000080fa000000060026
:020000040000fa
:102f6000f03fb1000180b10006003500ee0309001a
:102f700000000000403fb1000180b100fbff3d00b8
:102f80001000b000203fb0000200350000800900b2
:082f9000000000000000060033
:020000040000fa
:0200000401f009
:04000000ffff0000fe
:020000040000fa
:0200000401f009
:04000800ffff0000f6
:020000040000fa
:0200000401f009
:04000c007bff000076
:020000040000fa
:0200000401f009
:040010005dff000090
:020000040000fa
:0200000401f009
:040014007fff00006a
:020000040000fa
:0200000401f009
:04001800efff0000f6
:020000040000fa
:0200000401f009
:04001c00ddff000004
:00000001FF
